{
  "_format": "hh-sol-artifact-1",
  "contractName": "WhisperNFT",
  "sourceName": "contracts/WhisperNFT.sol",
  "abi": [
    {
      "inputs": [],
      "stateMutability": "nonpayable",
      "type": "constructor"
    },
    {
      "inputs": [
        {
          "internalType": "address",
          "name": "sender",
          "type": "address"
        },
        {
          "internalType": "uint256",
          "name": "tokenId",
          "type": "uint256"
        },
        {
          "internalType": "address",
          "name": "owner",
          "type": "address"
        }
      ],
      "name": "ERC721IncorrectOwner",
      "type": "error"
    },
    {
      "inputs": [
        {
          "internalType": "address",
          "name": "operator",
          "type": "address"
        },
        {
          "internalType": "uint256",
          "name": "tokenId",
          "type": "uint256"
        }
      ],
      "name": "ERC721InsufficientApproval",
      "type": "error"
    },
    {
      "inputs": [
        {
          "internalType": "address",
          "name": "approver",
          "type": "address"
        }
      ],
      "name": "ERC721InvalidApprover",
      "type": "error"
    },
    {
      "inputs": [
        {
          "internalType": "address",
          "name": "operator",
          "type": "address"
        }
      ],
      "name": "ERC721InvalidOperator",
      "type": "error"
    },
    {
      "inputs": [
        {
          "internalType": "address",
          "name": "owner",
          "type": "address"
        }
      ],
      "name": "ERC721InvalidOwner",
      "type": "error"
    },
    {
      "inputs": [
        {
          "internalType": "address",
          "name": "receiver",
          "type": "address"
        }
      ],
      "name": "ERC721InvalidReceiver",
      "type": "error"
    },
    {
      "inputs": [
        {
          "internalType": "address",
          "name": "sender",
          "type": "address"
        }
      ],
      "name": "ERC721InvalidSender",
      "type": "error"
    },
    {
      "inputs": [
        {
          "internalType": "uint256",
          "name": "tokenId",
          "type": "uint256"
        }
      ],
      "name": "ERC721NonexistentToken",
      "type": "error"
    },
    {
      "inputs": [],
      "name": "ReentrancyGuardReentrantCall",
      "type": "error"
    },
    {
      "anonymous": false,
      "inputs": [
        {
          "indexed": true,
          "internalType": "address",
          "name": "owner",
          "type": "address"
        },
        {
          "indexed": true,
          "internalType": "address",
          "name": "approved",
          "type": "address"
        },
        {
          "indexed": true,
          "internalType": "uint256",
          "name": "tokenId",
          "type": "uint256"
        }
      ],
      "name": "Approval",
      "type": "event"
    },
    {
      "anonymous": false,
      "inputs": [
        {
          "indexed": true,
          "internalType": "address",
          "name": "owner",
          "type": "address"
        },
        {
          "indexed": true,
          "internalType": "address",
          "name": "operator",
          "type": "address"
        },
        {
          "indexed": false,
          "internalType": "bool",
          "name": "approved",
          "type": "bool"
        }
      ],
      "name": "ApprovalForAll",
      "type": "event"
    },
    {
      "anonymous": false,
      "inputs": [
        {
          "indexed": true,
          "internalType": "address",
          "name": "from",
          "type": "address"
        },
        {
          "indexed": true,
          "internalType": "address",
          "name": "to",
          "type": "address"
        },
        {
          "indexed": true,
          "internalType": "uint256",
          "name": "tokenId",
          "type": "uint256"
        }
      ],
      "name": "Transfer",
      "type": "event"
    },
    {
      "anonymous": false,
      "inputs": [
        {
          "indexed": true,
          "internalType": "uint256",
          "name": "tokenId",
          "type": "uint256"
        }
      ],
      "name": "WhisperBurned",
      "type": "event"
    },
    {
      "anonymous": false,
      "inputs": [
        {
          "indexed": true,
          "internalType": "uint256",
          "name": "tokenId",
          "type": "uint256"
        }
      ],
      "name": "WhisperForgotten",
      "type": "event"
    },
    {
      "anonymous": false,
      "inputs": [
        {
          "indexed": true,
          "internalType": "uint256",
          "name": "tokenId",
          "type": "uint256"
        },
        {
          "indexed": true,
          "internalType": "address",
          "name": "minter",
          "type": "address"
        },
        {
          "indexed": false,
          "internalType": "uint256",
          "name": "expiryTime",
          "type": "uint256"
        }
      ],
      "name": "WhisperMinted",
      "type": "event"
    },
    {
      "inputs": [],
      "name": "MAX_DURATION",
      "outputs": [
        {
          "internalType": "uint256",
          "name": "",
          "type": "uint256"
        }
      ],
      "stateMutability": "view",
      "type": "function"
    },
    {
      "inputs": [],
      "name": "MAX_SUPPLY",
      "outputs": [
        {
          "internalType": "uint256",
          "name": "",
          "type": "uint256"
        }
      ],
      "stateMutability": "view",
      "type": "function"
    },
    {
      "inputs": [],
      "name": "MAX_TEXT_LENGTH",
      "outputs": [
        {
          "internalType": "uint256",
          "name": "",
          "type": "uint256"
        }
      ],
      "stateMutability": "view",
      "type": "function"
    },
    {
      "inputs": [],
      "name": "MINT_COOLDOWN",
      "outputs": [
        {
          "internalType": "uint256",
          "name": "",
          "type": "uint256"
        }
      ],
      "stateMutability": "view",
      "type": "function"
    },
    {
      "inputs": [
        {
          "internalType": "address",
          "name": "to",
          "type": "address"
        },
        {
          "internalType": "uint256",
          "name": "tokenId",
          "type": "uint256"
        }
      ],
      "name": "approve",
      "outputs": [],
      "stateMutability": "nonpayable",
      "type": "function"
    },
    {
      "inputs": [
        {
          "internalType": "address",
          "name": "owner",
          "type": "address"
        }
      ],
      "name": "balanceOf",
      "outputs": [
        {
          "internalType": "uint256",
          "name": "",
          "type": "uint256"
        }
      ],
      "stateMutability": "view",
      "type": "function"
    },
    {
      "inputs": [
        {
          "internalType": "uint256",
          "name": "tokenId",
          "type": "uint256"
        }
      ],
      "name": "burnWhisper",
      "outputs": [],
      "stateMutability": "nonpayable",
      "type": "function"
    },
    {
      "inputs": [
        {
          "internalType": "uint256",
          "name": "tokenId",
          "type": "uint256"
        }
      ],
      "name": "forgetWhisper",
      "outputs": [],
      "stateMutability": "nonpayable",
      "type": "function"
    },
    {
      "inputs": [
        {
          "internalType": "uint256",
          "name": "tokenId",
          "type": "uint256"
        }
      ],
      "name": "getApproved",
      "outputs": [
        {
          "internalType": "address",
          "name": "",
          "type": "address"
        }
      ],
      "stateMutability": "view",
      "type": "function"
    },
    {
      "inputs": [
        {
          "internalType": "uint256",
          "name": "tokenId",
          "type": "uint256"
        }
      ],
      "name": "getExpiryTime",
      "outputs": [
        {
          "internalType": "uint256",
          "name": "",
          "type": "uint256"
        }
      ],
      "stateMutability": "view",
      "type": "function"
    },
    {
      "inputs": [
        {
          "internalType": "uint256",
          "name": "tokenId",
          "type": "uint256"
        }
      ],
      "name": "getWhisperText",
      "outputs": [
        {
          "internalType": "string",
          "name": "",
          "type": "string"
        }
      ],
      "stateMutability": "view",
      "type": "function"
    },
    {
      "inputs": [
        {
          "internalType": "address",
          "name": "owner",
          "type": "address"
        },
        {
          "internalType": "address",
          "name": "operator",
          "type": "address"
        }
      ],
      "name": "isApprovedForAll",
      "outputs": [
        {
          "internalType": "bool",
          "name": "",
          "type": "bool"
        }
      ],
      "stateMutability": "view",
      "type": "function"
    },
    {
      "inputs": [
        {
          "internalType": "uint256",
          "name": "tokenId",
          "type": "uint256"
        }
      ],
      "name": "isWhisperExpired",
      "outputs": [
        {
          "internalType": "bool",
          "name": "",
          "type": "bool"
        }
      ],
      "stateMutability": "view",
      "type": "function"
    },
    {
      "inputs": [
        {
          "internalType": "uint256",
          "name": "tokenId",
          "type": "uint256"
        }
      ],
      "name": "isWhisperForgotten",
      "outputs": [
        {
          "internalType": "bool",
          "name": "",
          "type": "bool"
        }
      ],
      "stateMutability": "view",
      "type": "function"
    },
    {
      "inputs": [
        {
          "internalType": "string",
          "name": "_scrambledText",
          "type": "string"
        },
        {
          "internalType": "uint256",
          "name": "_durationSeconds",
          "type": "uint256"
        }
      ],
      "name": "mintWhisper",
      "outputs": [
        {
          "internalType": "uint256",
          "name": "",
          "type": "uint256"
        }
      ],
      "stateMutability": "nonpayable",
      "type": "function"
    },
    {
      "inputs": [],
      "name": "name",
      "outputs": [
        {
          "internalType": "string",
          "name": "",
          "type": "string"
        }
      ],
      "stateMutability": "view",
      "type": "function"
    },
    {
      "inputs": [
        {
          "internalType": "uint256",
          "name": "tokenId",
          "type": "uint256"
        }
      ],
      "name": "ownerOf",
      "outputs": [
        {
          "internalType": "address",
          "name": "",
          "type": "address"
        }
      ],
      "stateMutability": "view",
      "type": "function"
    },
    {
      "inputs": [
        {
          "internalType": "address",
          "name": "from",
          "type": "address"
        },
        {
          "internalType": "address",
          "name": "to",
          "type": "address"
        },
        {
          "internalType": "uint256",
          "name": "tokenId",
          "type": "uint256"
        }
      ],
      "name": "safeTransferFrom",
      "outputs": [],
      "stateMutability": "nonpayable",
      "type": "function"
    },
    {
      "inputs": [
        {
          "internalType": "address",
          "name": "from",
          "type": "address"
        },
        {
          "internalType": "address",
          "name": "to",
          "type": "address"
        },
        {
          "internalType": "uint256",
          "name": "tokenId",
          "type": "uint256"
        },
        {
          "internalType": "bytes",
          "name": "data",
          "type": "bytes"
        }
      ],
      "name": "safeTransferFrom",
      "outputs": [],
      "stateMutability": "nonpayable",
      "type": "function"
    },
    {
      "inputs": [
        {
          "internalType": "address",
          "name": "operator",
          "type": "address"
        },
        {
          "internalType": "bool",
          "name": "approved",
          "type": "bool"
        }
      ],
      "name": "setApprovalForAll",
      "outputs": [],
      "stateMutability": "nonpayable",
      "type": "function"
    },
    {
      "inputs": [
        {
          "internalType": "bytes4",
          "name": "interfaceId",
          "type": "bytes4"
        }
      ],
      "name": "supportsInterface",
      "outputs": [
        {
          "internalType": "bool",
          "name": "",
          "type": "bool"
        }
      ],
      "stateMutability": "view",
      "type": "function"
    },
    {
      "inputs": [],
      "name": "symbol",
      "outputs": [
        {
          "internalType": "string",
          "name": "",
          "type": "string"
        }
      ],
      "stateMutability": "view",
      "type": "function"
    },
    {
      "inputs": [
        {
          "internalType": "uint256",
          "name": "tokenId",
          "type": "uint256"
        }
      ],
      "name": "tokenURI",
      "outputs": [
        {
          "internalType": "string",
          "name": "",
          "type": "string"
        }
      ],
      "stateMutability": "view",
      "type": "function"
    },
    {
      "inputs": [],
      "name": "totalSupply",
      "outputs": [
        {
          "internalType": "uint256",
          "name": "",
          "type": "uint256"
        }
      ],
      "stateMutability": "view",
      "type": "function"
    },
    {
      "inputs": [
        {
          "internalType": "address",
          "name": "from",
          "type": "address"
        },
        {
          "internalType": "address",
          "name": "to",
          "type": "address"
        },
        {
          "internalType": "uint256",
          "name": "tokenId",
          "type": "uint256"
        }
      ],
      "name": "transferFrom",
      "outputs": [],
      "stateMutability": "nonpayable",
      "type": "function"
    }
  ],
  "bytecode": "0x608060405260006007553480156200001657600080fd5b506040518060400160405280600b81526020017f576869737065724563686f0000000000000000000000000000000000000000008152506040518060400160405280600481526020017f5753505200000000000000000000000000000000000000000000000000000000815250816000908162000094919062000331565b508060019081620000a6919062000331565b505050600160068190555062000418565b600081519050919050565b7f4e487b7100000000000000000000000000000000000000000000000000000000600052604160045260246000fd5b7f4e487b7100000000000000000000000000000000000000000000000000000000600052602260045260246000fd5b600060028204905060018216806200013957607f821691505b6020821081036200014f576200014e620000f1565b5b50919050565b60008190508160005260206000209050919050565b60006020601f8301049050919050565b600082821b905092915050565b600060088302620001b97fffffffffffffffffffffffffffffffffffffffffffffffffffffffffffffffff826200017a565b620001c586836200017a565b95508019841693508086168417925050509392505050565b6000819050919050565b6000819050919050565b6000620002126200020c6200020684620001dd565b620001e7565b620001dd565b9050919050565b6000819050919050565b6200022e83620001f1565b620002466200023d8262000219565b84845462000187565b825550505050565b600090565b6200025d6200024e565b6200026a81848462000223565b505050565b5b8181101562000292576200028660008262000253565b60018101905062000270565b5050565b601f821115620002e157620002ab8162000155565b620002b6846200016a565b81016020851015620002c6578190505b620002de620002d5856200016a565b8301826200026f565b50505b505050565b600082821c905092915050565b60006200030660001984600802620002e6565b1980831691505092915050565b6000620003218383620002f3565b9150826002028217905092915050565b6200033c82620000b7565b67ffffffffffffffff811115620003585762000357620000c2565b5b62000364825462000120565b6200037182828562000296565b600060209050601f831160018114620003a9576000841562000394578287015190505b620003a0858262000313565b86555062000410565b601f198416620003b98662000155565b60005b82811015620003e357848901518255600182019150602085019450602081019050620003bc565b86831015620004035784890151620003ff601f891682620002f3565b8355505b6001600288020188555050505b505050505050565b61349080620004286000396000f3fe608060405234801561001057600080fd5b50600436106101735760003560e01c80635480cc86116100de578063b88d4fde11610097578063c87b56dd11610071578063c87b56dd14610470578063d831a7c6146104a0578063e985e9c5146104d0578063f7ee7a431461050057610173565b8063b88d4fde146103f4578063bae2d3da14610410578063c56d161b1461044057610173565b80635480cc861461030c5780636352211e1461033c57806370a082311461036c57806395d89b411461039c578063a22cb465146103ba578063b1724b46146103d657610173565b806318160ddd1161013057806318160ddd1461025e57806323b872dd1461027c578063252e36b91461029857806332cb6b0c146102b4578063417763c5146102d257806342842e0e146102f057610173565b806301ffc9a714610178578063038e1dc7146101a857806306ddff76146101d857806306fdde03146101f4578063081812fc14610212578063095ea7b314610242575b600080fd5b610192600480360381019061018d91906123d1565b61051e565b60405161019f9190612419565b60405180910390f35b6101c260048036038101906101bd91906125b0565b610600565b6040516101cf919061261b565b60405180910390f35b6101f260048036038101906101ed9190612636565b6108cd565b005b6101fc610a4d565b60405161020991906126e2565b60405180910390f35b61022c60048036038101906102279190612636565b610adf565b6040516102399190612745565b60405180910390f35b61025c6004803603810190610257919061278c565b610afb565b005b610266610b11565b604051610273919061261b565b60405180910390f35b610296600480360381019061029191906127cc565b610b1b565b005b6102b260048036038101906102ad9190612636565b610c1d565b005b6102bc610da0565b6040516102c9919061261b565b60405180910390f35b6102da610da6565b6040516102e7919061261b565b60405180910390f35b61030a600480360381019061030591906127cc565b610dac565b005b61032660048036038101906103219190612636565b610dcc565b6040516103339190612419565b60405180910390f35b61035660048036038101906103519190612636565b610e65565b6040516103639190612745565b60405180910390f35b6103866004803603810190610381919061281f565b610e77565b604051610393919061261b565b60405180910390f35b6103a4610f31565b6040516103b191906126e2565b60405180910390f35b6103d460048036038101906103cf9190612878565b610fc3565b005b6103de610fd9565b6040516103eb919061261b565b60405180910390f35b61040e60048036038101906104099190612959565b610fe0565b005b61042a60048036038101906104259190612636565b611005565b6040516104379190612419565b60405180910390f35b61045a60048036038101906104559190612636565b6110a8565b60405161046791906126e2565b60405180910390f35b61048a60048036038101906104859190612636565b611247565b60405161049791906126e2565b60405180910390f35b6104ba60048036038101906104b59190612636565b6113fd565b6040516104c7919061261b565b60405180910390f35b6104ea60048036038101906104e591906129dc565b611493565b6040516104f79190612419565b60405180910390f35b610508611527565b604051610515919061261b565b60405180910390f35b60007f80ac58cd000000000000000000000000000000000000000000000000000000007bffffffffffffffffffffffffffffffffffffffffffffffffffffffff1916827bffffffffffffffffffffffffffffffffffffffffffffffffffffffff191614806105e957507f5b5e139f000000000000000000000000000000000000000000000000000000007bffffffffffffffffffffffffffffffffffffffffffffffffffffffff1916827bffffffffffffffffffffffffffffffffffffffffffffffffffffffff1916145b806105f957506105f88261152c565b5b9050919050565b600061060a611596565b60008211801561061d575062278d008211155b61065c576040517f08c379a000000000000000000000000000000000000000000000000000000000815260040161065390612a68565b60405180910390fd5b6000835111801561067057506103e8835111155b6106af576040517f08c379a00000000000000000000000000000000000000000000000000000000081526004016106a690612ad4565b60405180910390fd5b612710600754106106f5576040517f08c379a00000000000000000000000000000000000000000000000000000000081526004016106ec90612b40565b60405180910390fd5b603c600b60003373ffffffffffffffffffffffffffffffffffffffff1673ffffffffffffffffffffffffffffffffffffffff168152602001908152602001600020546107419190612b8f565b4211610782576040517f08c379a000000000000000000000000000000000000000000000000000000000815260040161077990612c0f565b60405180910390fd5b42600b60003373ffffffffffffffffffffffffffffffffffffffff1673ffffffffffffffffffffffffffffffffffffffff1681526020019081526020016000208190555060006007600081546107d790612c2f565b91905081905590506107e933826115dc565b836008600083815260200190815260200160002090816108099190612e83565b5082426108169190612b8f565b60096000838152602001908152602001600020819055506000600a600083815260200190815260200160002060006101000a81548160ff0219169083151502179055503373ffffffffffffffffffffffffffffffffffffffff16817f35901adb988f5342d46bc3035a9ba4279c0f6f2b77b09cf22fe453c6174d1a4860096000858152602001908152602001600020546040516108b3919061261b565b60405180910390a3809150506108c76115fa565b92915050565b80600073ffffffffffffffffffffffffffffffffffffffff166108ef82611604565b73ffffffffffffffffffffffffffffffffffffffff1603610945576040517f08c379a000000000000000000000000000000000000000000000000000000000815260040161093c90612fc7565b60405180910390fd5b61094d611596565b600a600083815260200190815260200160002060009054906101000a900460ff16610a415760096000838152602001908152602001600020544210156109c8576040517f08c379a00000000000000000000000000000000000000000000000000000000081526004016109bf90613059565b60405180910390fd5b6008600083815260200190815260200160002060006109e79190612308565b6001600a600084815260200190815260200160002060006101000a81548160ff021916908315150217905550817f5a25ce0b155b34b218bf9f3dafbab992a82802991debbd75ad9dc68fb4de087860405160405180910390a25b610a496115fa565b5050565b606060008054610a5c90612ca6565b80601f0160208091040260200160405190810160405280929190818152602001828054610a8890612ca6565b8015610ad55780601f10610aaa57610100808354040283529160200191610ad5565b820191906000526020600020905b815481529060010190602001808311610ab857829003601f168201915b5050505050905090565b6000610aea82611641565b50610af4826116c9565b9050919050565b610b0d8282610b08611706565b61170e565b5050565b6000600754905090565b600073ffffffffffffffffffffffffffffffffffffffff168273ffffffffffffffffffffffffffffffffffffffff1603610b8d5760006040517f64a0ae92000000000000000000000000000000000000000000000000000000008152600401610b849190612745565b60405180910390fd5b6000610ba18383610b9c611706565b611720565b90508373ffffffffffffffffffffffffffffffffffffffff168173ffffffffffffffffffffffffffffffffffffffff1614610c17578382826040517f64283d7b000000000000000000000000000000000000000000000000000000008152600401610c0e93929190613079565b60405180910390fd5b50505050565b80600073ffffffffffffffffffffffffffffffffffffffff16610c3f82611604565b73ffffffffffffffffffffffffffffffffffffffff1603610c95576040517f08c379a0000000000000000000000000000000000000000000000000000000008152600401610c8c90612fc7565b60405180910390fd5b813373ffffffffffffffffffffffffffffffffffffffff16610cb682610e65565b73ffffffffffffffffffffffffffffffffffffffff1614610d0c576040517f08c379a0000000000000000000000000000000000000000000000000000000008152600401610d03906130fc565b60405180910390fd5b610d158361193a565b600860008481526020019081526020016000206000610d349190612308565b6009600084815260200190815260200160002060009055600a600084815260200190815260200160002060006101000a81549060ff0219169055827f2f3726d6e91a8df63b0a9312215fab64be713c06ec94ba5685d53ed1ecc920f160405160405180910390a2505050565b61271081565b6103e881565b610dc783838360405180602001604052806000815250610fe0565b505050565b600081600073ffffffffffffffffffffffffffffffffffffffff16610df082611604565b73ffffffffffffffffffffffffffffffffffffffff1603610e46576040517f08c379a0000000000000000000000000000000000000000000000000000000008152600401610e3d90612fc7565b60405180910390fd5b6009600084815260200190815260200160002054421015915050919050565b6000610e7082611641565b9050919050565b60008073ffffffffffffffffffffffffffffffffffffffff168273ffffffffffffffffffffffffffffffffffffffff1603610eea5760006040517f89c62b64000000000000000000000000000000000000000000000000000000008152600401610ee19190612745565b60405180910390fd5b600360008373ffffffffffffffffffffffffffffffffffffffff1673ffffffffffffffffffffffffffffffffffffffff168152602001908152602001600020549050919050565b606060018054610f4090612ca6565b80601f0160208091040260200160405190810160405280929190818152602001828054610f6c90612ca6565b8015610fb95780601f10610f8e57610100808354040283529160200191610fb9565b820191906000526020600020905b815481529060010190602001808311610f9c57829003601f168201915b5050505050905090565b610fd5610fce611706565b83836119c0565b5050565b62278d0081565b610feb848484610b1b565b610fff610ff6611706565b85858585611b2f565b50505050565b600081600073ffffffffffffffffffffffffffffffffffffffff1661102982611604565b73ffffffffffffffffffffffffffffffffffffffff160361107f576040517f08c379a000000000000000000000000000000000000000000000000000000000815260040161107690612fc7565b60405180910390fd5b600a600084815260200190815260200160002060009054906101000a900460ff16915050919050565b606081600073ffffffffffffffffffffffffffffffffffffffff166110cc82611604565b73ffffffffffffffffffffffffffffffffffffffff1603611122576040517f08c379a000000000000000000000000000000000000000000000000000000000815260040161111990612fc7565b60405180910390fd5b826009600082815260200190815260200160002054421080156111635750600a600082815260200190815260200160002060009054906101000a900460ff16155b6111a2576040517f08c379a000000000000000000000000000000000000000000000000000000000815260040161119990613168565b60405180910390fd5b6008600085815260200190815260200160002080546111c090612ca6565b80601f01602080910402602001604051908101604052809291908181526020018280546111ec90612ca6565b80156112395780601f1061120e57610100808354040283529160200191611239565b820191906000526020600020905b81548152906001019060200180831161121c57829003601f168201915b505050505092505050919050565b606081600073ffffffffffffffffffffffffffffffffffffffff1661126b82611604565b73ffffffffffffffffffffffffffffffffffffffff16036112c1576040517f08c379a00000000000000000000000000000000000000000000000000000000081526004016112b890612fc7565b60405180910390fd5b6009600084815260200190815260200160002054421015806113005750600a600084815260200190815260200160002060009054906101000a900460ff165b15611325576040518060600160405280603a81526020016133e1603a913991506113f7565b600060086000858152602001908152602001600020805461134590612ca6565b80601f016020809104026020016040519081016040528092919081815260200182805461137190612ca6565b80156113be5780601f10611393576101008083540402835291602001916113be565b820191906000526020600020905b8154815290600101906020018083116113a157829003601f168201915b5050505050905060006113d082611ce0565b9050806040516020016113e39190613210565b604051602081830303815290604052935050505b50919050565b600081600073ffffffffffffffffffffffffffffffffffffffff1661142182611604565b73ffffffffffffffffffffffffffffffffffffffff1603611477576040517f08c379a000000000000000000000000000000000000000000000000000000000815260040161146e90612fc7565b60405180910390fd5b6009600084815260200190815260200160002054915050919050565b6000600560008473ffffffffffffffffffffffffffffffffffffffff1673ffffffffffffffffffffffffffffffffffffffff16815260200190815260200160002060008373ffffffffffffffffffffffffffffffffffffffff1673ffffffffffffffffffffffffffffffffffffffff16815260200190815260200160002060009054906101000a900460ff16905092915050565b603c81565b60007f01ffc9a7000000000000000000000000000000000000000000000000000000007bffffffffffffffffffffffffffffffffffffffffffffffffffffffff1916827bffffffffffffffffffffffffffffffffffffffffffffffffffffffff1916149050919050565b6002600654036115d2576040517f3ee5aeb500000000000000000000000000000000000000000000000000000000815260040160405180910390fd5b6002600681905550565b6115f6828260405180602001604052806000815250611d0d565b5050565b6001600681905550565b60006002600083815260200190815260200160002060009054906101000a900473ffffffffffffffffffffffffffffffffffffffff169050919050565b60008061164d83611604565b9050600073ffffffffffffffffffffffffffffffffffffffff168173ffffffffffffffffffffffffffffffffffffffff16036116c057826040517f7e2732890000000000000000000000000000000000000000000000000000000081526004016116b7919061261b565b60405180910390fd5b80915050919050565b60006004600083815260200190815260200160002060009054906101000a900473ffffffffffffffffffffffffffffffffffffffff169050919050565b600033905090565b61171b8383836001611d31565b505050565b60008061172c84611604565b9050600073ffffffffffffffffffffffffffffffffffffffff168373ffffffffffffffffffffffffffffffffffffffff161461176e5761176d818486611ef6565b5b600073ffffffffffffffffffffffffffffffffffffffff168173ffffffffffffffffffffffffffffffffffffffff16146117ff576117b0600085600080611d31565b6001600360008373ffffffffffffffffffffffffffffffffffffffff1673ffffffffffffffffffffffffffffffffffffffff168152602001908152602001600020600082825403925050819055505b600073ffffffffffffffffffffffffffffffffffffffff168573ffffffffffffffffffffffffffffffffffffffff1614611882576001600360008773ffffffffffffffffffffffffffffffffffffffff1673ffffffffffffffffffffffffffffffffffffffff168152602001908152602001600020600082825401925050819055505b846002600086815260200190815260200160002060006101000a81548173ffffffffffffffffffffffffffffffffffffffff021916908373ffffffffffffffffffffffffffffffffffffffff160217905550838573ffffffffffffffffffffffffffffffffffffffff168273ffffffffffffffffffffffffffffffffffffffff167fddf252ad1be2c89b69c2b068fc378daa952ba7f163c4a11628f55a4df523b3ef60405160405180910390a4809150509392505050565b60006119496000836000611720565b9050600073ffffffffffffffffffffffffffffffffffffffff168173ffffffffffffffffffffffffffffffffffffffff16036119bc57816040517f7e2732890000000000000000000000000000000000000000000000000000000081526004016119b3919061261b565b60405180910390fd5b5050565b600073ffffffffffffffffffffffffffffffffffffffff168273ffffffffffffffffffffffffffffffffffffffff1603611a3157816040517f5b08ba18000000000000000000000000000000000000000000000000000000008152600401611a289190612745565b60405180910390fd5b80600560008573ffffffffffffffffffffffffffffffffffffffff1673ffffffffffffffffffffffffffffffffffffffff16815260200190815260200160002060008473ffffffffffffffffffffffffffffffffffffffff1673ffffffffffffffffffffffffffffffffffffffff16815260200190815260200160002060006101000a81548160ff0219169083151502179055508173ffffffffffffffffffffffffffffffffffffffff168373ffffffffffffffffffffffffffffffffffffffff167f17307eab39ab6107e8899845ad3d59bd9653f200f220920489ca2b5937696c3183604051611b229190612419565b60405180910390a3505050565b60008373ffffffffffffffffffffffffffffffffffffffff163b1115611cd9578273ffffffffffffffffffffffffffffffffffffffff1663150b7a02868685856040518563ffffffff1660e01b8152600401611b8e9493929190613287565b6020604051808303816000875af1925050508015611bca57506040513d601f19601f82011682018060405250810190611bc791906132e8565b60015b611c4e573d8060008114611bfa576040519150601f19603f3d011682016040523d82523d6000602084013e611bff565b606091505b506000815103611c4657836040517f64a0ae92000000000000000000000000000000000000000000000000000000008152600401611c3d9190612745565b60405180910390fd5b805160208201fd5b63150b7a0260e01b7bffffffffffffffffffffffffffffffffffffffffffffffffffffffff1916817bffffffffffffffffffffffffffffffffffffffffffffffffffffffff191614611cd757836040517f64a0ae92000000000000000000000000000000000000000000000000000000008152600401611cce9190612745565b60405180910390fd5b505b5050505050565b6060611d068260405180606001604052806040815260200161341b604091396001611fba565b9050919050565b611d17838361214e565b611d2c611d22611706565b6000858585611b2f565b505050565b8080611d6a5750600073ffffffffffffffffffffffffffffffffffffffff168273ffffffffffffffffffffffffffffffffffffffff1614155b15611e9e576000611d7a84611641565b9050600073ffffffffffffffffffffffffffffffffffffffff168373ffffffffffffffffffffffffffffffffffffffff1614158015611de557508273ffffffffffffffffffffffffffffffffffffffff168173ffffffffffffffffffffffffffffffffffffffff1614155b8015611df85750611df68184611493565b155b15611e3a57826040517fa9fbf51f000000000000000000000000000000000000000000000000000000008152600401611e319190612745565b60405180910390fd5b8115611e9c57838573ffffffffffffffffffffffffffffffffffffffff168273ffffffffffffffffffffffffffffffffffffffff167f8c5be1e5ebec7d5bd14f71427d1e84f3dd0314c0f7b2291e5b200ac8c7c3b92560405160405180910390a45b505b836004600085815260200190815260200160002060006101000a81548173ffffffffffffffffffffffffffffffffffffffff021916908373ffffffffffffffffffffffffffffffffffffffff16021790555050505050565b611f01838383612247565b611fb557600073ffffffffffffffffffffffffffffffffffffffff168373ffffffffffffffffffffffffffffffffffffffff1603611f7657806040517f7e273289000000000000000000000000000000000000000000000000000000008152600401611f6d919061261b565b60405180910390fd5b81816040517f177e802f000000000000000000000000000000000000000000000000000000008152600401611fac929190613315565b60405180910390fd5b505050565b60606000845103611fdc57604051806020016040528060008152509050612147565b60008261200e576003600286516004611ff5919061333e565b611fff9190612b8f565b61200991906133af565b612035565b60036002865161201e9190612b8f565b61202891906133af565b6004612034919061333e565b5b905060008167ffffffffffffffff8111156120535761205261244f565b5b6040519080825280601f01601f1916602001820160405280156120855781602001600182028036833780820191505090505b50905060018501602082018788518901602081018051600082525b828410156120fb576003840193508351603f8160121c168701518653600186019550603f81600c1c168701518653600186019550603f8160061c168701518653600186019550603f81168701518653600186019550506120a0565b808252891561213b5760038c51066001811461211e576002811461213157612139565b603d6001870353603d6002870353612139565b603d60018703535b505b50505050505080925050505b9392505050565b600073ffffffffffffffffffffffffffffffffffffffff168273ffffffffffffffffffffffffffffffffffffffff16036121c05760006040517f64a0ae920000000000000000000000000000000000000000000000000000000081526004016121b79190612745565b60405180910390fd5b60006121ce83836000611720565b9050600073ffffffffffffffffffffffffffffffffffffffff168173ffffffffffffffffffffffffffffffffffffffff16146122425760006040517f73c6ac6e0000000000000000000000000000000000000000000000000000000081526004016122399190612745565b60405180910390fd5b505050565b60008073ffffffffffffffffffffffffffffffffffffffff168373ffffffffffffffffffffffffffffffffffffffff16141580156122ff57508273ffffffffffffffffffffffffffffffffffffffff168473ffffffffffffffffffffffffffffffffffffffff1614806122c057506122bf8484611493565b5b806122fe57508273ffffffffffffffffffffffffffffffffffffffff166122e6836116c9565b73ffffffffffffffffffffffffffffffffffffffff16145b5b90509392505050565b50805461231490612ca6565b6000825580601f106123265750612345565b601f0160209004906000526020600020908101906123449190612348565b5b50565b5b80821115612361576000816000905550600101612349565b5090565b6000604051905090565b600080fd5b600080fd5b60007fffffffff0000000000000000000000000000000000000000000000000000000082169050919050565b6123ae81612379565b81146123b957600080fd5b50565b6000813590506123cb816123a5565b92915050565b6000602082840312156123e7576123e661236f565b5b60006123f5848285016123bc565b91505092915050565b60008115159050919050565b612413816123fe565b82525050565b600060208201905061242e600083018461240a565b92915050565b600080fd5b600080fd5b6000601f19601f8301169050919050565b7f4e487b7100000000000000000000000000000000000000000000000000000000600052604160045260246000fd5b6124878261243e565b810181811067ffffffffffffffff821117156124a6576124a561244f565b5b80604052505050565b60006124b9612365565b90506124c5828261247e565b919050565b600067ffffffffffffffff8211156124e5576124e461244f565b5b6124ee8261243e565b9050602081019050919050565b82818337600083830152505050565b600061251d612518846124ca565b6124af565b90508281526020810184848401111561253957612538612439565b5b6125448482856124fb565b509392505050565b600082601f83011261256157612560612434565b5b813561257184826020860161250a565b91505092915050565b6000819050919050565b61258d8161257a565b811461259857600080fd5b50565b6000813590506125aa81612584565b92915050565b600080604083850312156125c7576125c661236f565b5b600083013567ffffffffffffffff8111156125e5576125e4612374565b5b6125f18582860161254c565b92505060206126028582860161259b565b9150509250929050565b6126158161257a565b82525050565b6000602082019050612630600083018461260c565b92915050565b60006020828403121561264c5761264b61236f565b5b600061265a8482850161259b565b91505092915050565b600081519050919050565b600082825260208201905092915050565b60005b8381101561269d578082015181840152602081019050612682565b60008484015250505050565b60006126b482612663565b6126be818561266e565b93506126ce81856020860161267f565b6126d78161243e565b840191505092915050565b600060208201905081810360008301526126fc81846126a9565b905092915050565b600073ffffffffffffffffffffffffffffffffffffffff82169050919050565b600061272f82612704565b9050919050565b61273f81612724565b82525050565b600060208201905061275a6000830184612736565b92915050565b61276981612724565b811461277457600080fd5b50565b60008135905061278681612760565b92915050565b600080604083850312156127a3576127a261236f565b5b60006127b185828601612777565b92505060206127c28582860161259b565b9150509250929050565b6000806000606084860312156127e5576127e461236f565b5b60006127f386828701612777565b935050602061280486828701612777565b92505060406128158682870161259b565b9150509250925092565b6000602082840312156128355761283461236f565b5b600061284384828501612777565b91505092915050565b612855816123fe565b811461286057600080fd5b50565b6000813590506128728161284c565b92915050565b6000806040838503121561288f5761288e61236f565b5b600061289d85828601612777565b92505060206128ae85828601612863565b9150509250929050565b600067ffffffffffffffff8211156128d3576128d261244f565b5b6128dc8261243e565b9050602081019050919050565b60006128fc6128f7846128b8565b6124af565b90508281526020810184848401111561291857612917612439565b5b6129238482856124fb565b509392505050565b600082601f8301126129405761293f612434565b5b81356129508482602086016128e9565b91505092915050565b600080600080608085870312156129735761297261236f565b5b600061298187828801612777565b945050602061299287828801612777565b93505060406129a38782880161259b565b925050606085013567ffffffffffffffff8111156129c4576129c3612374565b5b6129d08782880161292b565b91505092959194509250565b600080604083850312156129f3576129f261236f565b5b6000612a0185828601612777565b9250506020612a1285828601612777565b9150509250929050565b7f576869737065724e46543a20496e76616c6964206475726174696f6e00000000600082015250565b6000612a52601c8361266e565b9150612a5d82612a1c565b602082019050919050565b60006020820190508181036000830152612a8181612a45565b9050919050565b7f576869737065724e46543a20496e76616c69642074657874206c656e67746800600082015250565b6000612abe601f8361266e565b9150612ac982612a88565b602082019050919050565b60006020820190508181036000830152612aed81612ab1565b9050919050565b7f576869737065724e46543a204d617820737570706c7920726561636865640000600082015250565b6000612b2a601e8361266e565b9150612b3582612af4565b602082019050919050565b60006020820190508181036000830152612b5981612b1d565b9050919050565b7f4e487b7100000000000000000000000000000000000000000000000000000000600052601160045260246000fd5b6000612b9a8261257a565b9150612ba58361257a565b9250828201905080821115612bbd57612bbc612b60565b5b92915050565b7f576869737065724e46543a204d696e7420636f6f6c646f776e20616374697665600082015250565b6000612bf960208361266e565b9150612c0482612bc3565b602082019050919050565b60006020820190508181036000830152612c2881612bec565b9050919050565b6000612c3a8261257a565b91507fffffffffffffffffffffffffffffffffffffffffffffffffffffffffffffffff8203612c6c57612c6b612b60565b5b600182019050919050565b7f4e487b7100000000000000000000000000000000000000000000000000000000600052602260045260246000fd5b60006002820490506001821680612cbe57607f821691505b602082108103612cd157612cd0612c77565b5b50919050565b60008190508160005260206000209050919050565b60006020601f8301049050919050565b600082821b905092915050565b600060088302612d397fffffffffffffffffffffffffffffffffffffffffffffffffffffffffffffffff82612cfc565b612d438683612cfc565b95508019841693508086168417925050509392505050565b6000819050919050565b6000612d80612d7b612d768461257a565b612d5b565b61257a565b9050919050565b6000819050919050565b612d9a83612d65565b612dae612da682612d87565b848454612d09565b825550505050565b600090565b612dc3612db6565b612dce818484612d91565b505050565b5b81811015612df257612de7600082612dbb565b600181019050612dd4565b5050565b601f821115612e3757612e0881612cd7565b612e1184612cec565b81016020851015612e20578190505b612e34612e2c85612cec565b830182612dd3565b50505b505050565b600082821c905092915050565b6000612e5a60001984600802612e3c565b1980831691505092915050565b6000612e738383612e49565b9150826002028217905092915050565b612e8c82612663565b67ffffffffffffffff811115612ea557612ea461244f565b5b612eaf8254612ca6565b612eba828285612df6565b600060209050601f831160018114612eed5760008415612edb578287015190505b612ee58582612e67565b865550612f4d565b601f198416612efb86612cd7565b60005b82811015612f2357848901518255600182019150602085019450602081019050612efe565b86831015612f405784890151612f3c601f891682612e49565b8355505b6001600288020188555050505b505050505050565b7f576869737065724e46543a20546f6b656e20494420646f6573206e6f7420657860008201527f6973740000000000000000000000000000000000000000000000000000000000602082015250565b6000612fb160238361266e565b9150612fbc82612f55565b604082019050919050565b60006020820190508181036000830152612fe081612fa4565b9050919050565b7f576869737065724e46543a2043616e6e6f7420666f72676574206265666f726560008201527f2065787069727900000000000000000000000000000000000000000000000000602082015250565b600061304360278361266e565b915061304e82612fe7565b604082019050919050565b6000602082019050818103600083015261307281613036565b9050919050565b600060608201905061308e6000830186612736565b61309b602083018561260c565b6130a86040830184612736565b949350505050565b7f576869737065724e46543a204e6f7420746f6b656e206f776e65720000000000600082015250565b60006130e6601b8361266e565b91506130f1826130b0565b602082019050919050565b60006020820190508181036000830152613115816130d9565b9050919050565b7f576869737065724e46543a204e6f742061636365737369626c65000000000000600082015250565b6000613152601a8361266e565b915061315d8261311c565b602082019050919050565b6000602082019050818103600083015261318181613145565b9050919050565b600081905092915050565b7f646174613a746578742f706c61696e3b6261736536342c000000000000000000600082015250565b60006131c9601783613188565b91506131d482613193565b601782019050919050565b60006131ea82612663565b6131f48185613188565b935061320481856020860161267f565b80840191505092915050565b600061321b826131bc565b915061322782846131df565b915081905092915050565b600081519050919050565b600082825260208201905092915050565b600061325982613232565b613263818561323d565b935061327381856020860161267f565b61327c8161243e565b840191505092915050565b600060808201905061329c6000830187612736565b6132a96020830186612736565b6132b6604083018561260c565b81810360608301526132c8818461324e565b905095945050505050565b6000815190506132e2816123a5565b92915050565b6000602082840312156132fe576132fd61236f565b5b600061330c848285016132d3565b91505092915050565b600060408201905061332a6000830185612736565b613337602083018461260c565b9392505050565b60006133498261257a565b91506133548361257a565b92508282026133628161257a565b9150828204841483151761337957613378612b60565b5b5092915050565b7f4e487b7100000000000000000000000000000000000000000000000000000000600052601260045260246000fd5b60006133ba8261257a565b91506133c58361257a565b9250826133d5576133d4613380565b5b82820490509291505056fe646174613a746578742f706c61696e3b636861727365743d7574662d382c5468697320776869737065722068617320666164656420617761792e4142434445464748494a4b4c4d4e4f505152535455565758595a6162636465666768696a6b6c6d6e6f707172737475767778797a303132333435363738392b2fa264697066735822122088ff90fb70fd37f50a11d5a97d7a343c31a4103fc6398886e25113aa259b35dc64736f6c63430008180033",
  "linkReferences": {},
  "deployedLinkReferences": {}
}